{
  "_format": "hh-sol-artifact-1",
  "contractName": "Lottery2",
  "sourceName": "contracts/Lottery2.sol",
  "abi": [
    {
      "inputs": [],
      "stateMutability": "nonpayable",
      "type": "constructor"
    },
    {
      "anonymous": false,
      "inputs": [
        {
          "indexed": true,
          "internalType": "address",
          "name": "buyer",
          "type": "address"
        },
        {
          "indexed": false,
          "internalType": "enum Lottery2.Item",
          "name": "item",
          "type": "uint8"
        },
        {
          "indexed": false,
          "internalType": "uint256",
          "name": "timeStamp",
          "type": "uint256"
        }
      ],
      "name": "TicketPurchase",
      "type": "event"
    },
    {
      "inputs": [],
      "name": "allowBids",
      "outputs": [],
      "stateMutability": "nonpayable",
      "type": "function"
    },
    {
      "inputs": [],
      "name": "beneficiary",
      "outputs": [
        {
          "internalType": "address",
          "name": "",
          "type": "address"
        }
      ],
      "stateMutability": "view",
      "type": "function"
    },
    {
      "inputs": [
        {
          "internalType": "enum Lottery2.Item",
          "name": "_item",
          "type": "uint8"
        }
      ],
      "name": "bid",
      "outputs": [],
      "stateMutability": "payable",
      "type": "function"
    },
    {
      "inputs": [
        {
          "internalType": "uint256",
          "name": "_round",
          "type": "uint256"
        },
        {
          "internalType": "enum Lottery2.Item",
          "name": "_item",
          "type": "uint8"
        }
      ],
      "name": "checkWinner",
      "outputs": [
        {
          "internalType": "address",
          "name": "",
          "type": "address"
        }
      ],
      "stateMutability": "view",
      "type": "function"
    },
    {
      "inputs": [],
      "name": "declareWinners",
      "outputs": [],
      "stateMutability": "nonpayable",
      "type": "function"
    },
    {
      "inputs": [],
      "name": "destroyContract",
      "outputs": [],
      "stateMutability": "nonpayable",
      "type": "function"
    },
    {
      "inputs": [],
      "name": "lotteryNum",
      "outputs": [
        {
          "internalType": "uint256",
          "name": "",
          "type": "uint256"
        }
      ],
      "stateMutability": "view",
      "type": "function"
    },
    {
      "inputs": [],
      "name": "revealBidCount",
      "outputs": [
        {
          "internalType": "uint256",
          "name": "carBidCount",
          "type": "uint256"
        },
        {
          "internalType": "uint256",
          "name": "phoneBidCount",
          "type": "uint256"
        },
        {
          "internalType": "uint256",
          "name": "computerBidCount",
          "type": "uint256"
        }
      ],
      "stateMutability": "view",
      "type": "function"
    },
    {
      "inputs": [],
      "name": "stage",
      "outputs": [
        {
          "internalType": "enum Lottery2.Stage",
          "name": "",
          "type": "uint8"
        }
      ],
      "stateMutability": "view",
      "type": "function"
    },
    {
      "inputs": [],
      "name": "startNewCycle",
      "outputs": [],
      "stateMutability": "nonpayable",
      "type": "function"
    },
    {
      "inputs": [],
      "name": "ticketPrice",
      "outputs": [
        {
          "internalType": "uint256",
          "name": "",
          "type": "uint256"
        }
      ],
      "stateMutability": "view",
      "type": "function"
    },
    {
      "inputs": [],
      "name": "withdraw",
      "outputs": [],
      "stateMutability": "nonpayable",
      "type": "function"
    }
  ],
  "bytecode": "0x608060405234801561001057600080fd5b5033600360006101000a81548173ffffffffffffffffffffffffffffffffffffffff021916908373ffffffffffffffffffffffffffffffffffffffff16021790555060008060006101000a81548160ff0219169083600281111561007757610076610081565b5b02179055506100b0565b7f4e487b7100000000000000000000000000000000000000000000000000000000600052602160045260246000fd5b611bdd806100bf6000396000f3fe6080604052600436106100a75760003560e01c80637c669c99116100645780637c669c99146101775780637f2736d1146101a4578063865a9ac8146101bb578063b55a60e8146101f8578063c040e6b81461020f578063d06da2cb1461023a576100a7565b8063092a5cce146100ac5780631209b1f6146100c357806333500e26146100ee57806338af3eed1461010a5780633ccfd60b14610135578063733df8411461014c575b600080fd5b3480156100b857600080fd5b506100c1610251565b005b3480156100cf57600080fd5b506100d86102fa565b6040516100e59190611424565b60405180910390f35b61010860048036038101906101039190611469565b610305565b005b34801561011657600080fd5b5061011f61053d565b60405161012c91906114d7565b60405180910390f35b34801561014157600080fd5b5061014a610563565b005b34801561015857600080fd5b506101616106d1565b60405161016e9190611424565b60405180910390f35b34801561018357600080fd5b5061018c6106d7565b60405161019b939291906114f2565b60405180910390f35b3480156101b057600080fd5b506101b9610799565b005b3480156101c757600080fd5b506101e260048036038101906101dd9190611555565b6109aa565b6040516101ef91906114d7565b60405180910390f35b34801561020457600080fd5b5061020d610acf565b005b34801561021b57600080fd5b50610224610bff565b604051610231919061160c565b60405180910390f35b34801561024657600080fd5b5061024f610c10565b005b600360009054906101000a900473ffffffffffffffffffffffffffffffffffffffff1673ffffffffffffffffffffffffffffffffffffffff163373ffffffffffffffffffffffffffffffffffffffff16146102e1576040517f08c379a00000000000000000000000000000000000000000000000000000000081526004016102d890611684565b60405180910390fd5b3373ffffffffffffffffffffffffffffffffffffffff16ff5b662386f26fc1000081565b6001600281111561031957610318611595565b5b60008054906101000a900460ff16600281111561033957610338611595565b5b14610379576040517f08c379a0000000000000000000000000000000000000000000000000000000008152600401610370906116f0565b60405180910390fd5b600360009054906101000a900473ffffffffffffffffffffffffffffffffffffffff1673ffffffffffffffffffffffffffffffffffffffff163373ffffffffffffffffffffffffffffffffffffffff1603610409576040517f08c379a000000000000000000000000000000000000000000000000000000000815260040161040090611782565b60405180910390fd5b662386f26fc100003414610452576040517f08c379a000000000000000000000000000000000000000000000000000000000815260040161044990611814565b60405180910390fd5b6001600082600281111561046957610468611595565b5b600281111561047b5761047a611595565b5b8152602001908152602001600020339080600181540180825580915050600190039060005260206000200160009091909190916101000a81548173ffffffffffffffffffffffffffffffffffffffff021916908373ffffffffffffffffffffffffffffffffffffffff1602179055503373ffffffffffffffffffffffffffffffffffffffff167f85ff9dbd52eeadebc2901b943b91e0f5daa6a2cd68ca3bb9b783ea37fcad953c824260405161053292919061187c565b60405180910390a250565b600360009054906101000a900473ffffffffffffffffffffffffffffffffffffffff1681565b600360009054906101000a900473ffffffffffffffffffffffffffffffffffffffff1673ffffffffffffffffffffffffffffffffffffffff163373ffffffffffffffffffffffffffffffffffffffff16146105f3576040517f08c379a00000000000000000000000000000000000000000000000000000000081526004016105ea90611684565b60405180910390fd5b60028081111561060657610605611595565b5b60008054906101000a900460ff16600281111561062657610625611595565b5b14610666576040517f08c379a000000000000000000000000000000000000000000000000000000000815260040161065d906116f0565b60405180910390fd5b600360009054906101000a900473ffffffffffffffffffffffffffffffffffffffff1673ffffffffffffffffffffffffffffffffffffffff166108fc479081150290604051600060405180830381858888f193505050501580156106ce573d6000803e3d6000fd5b50565b60045481565b6000806000600160008060028111156106f3576106f2611595565b5b600281111561070557610704611595565b5b8152602001908152602001600020805490509250600160006001600281111561073157610730611595565b5b600281111561074357610742611595565b5b81526020019081526020016000208054905091506001600060028081111561076e5761076d611595565b5b60028111156107805761077f611595565b5b8152602001908152602001600020805490509050909192565b600360009054906101000a900473ffffffffffffffffffffffffffffffffffffffff1673ffffffffffffffffffffffffffffffffffffffff163373ffffffffffffffffffffffffffffffffffffffff1614610829576040517f08c379a000000000000000000000000000000000000000000000000000000000815260040161082090611684565b60405180910390fd5b60028081111561083c5761083b611595565b5b60008054906101000a900460ff16600281111561085c5761085b611595565b5b1461089c576040517f08c379a0000000000000000000000000000000000000000000000000000000008152600401610893906116f0565b60405180910390fd5b600160008060028111156108b3576108b2611595565b5b60028111156108c5576108c4611595565b5b815260200190815260200160002060006108df91906113cd565b60016000600160028111156108f7576108f6611595565b5b600281111561090957610908611595565b5b8152602001908152602001600020600061092391906113cd565b6001600060028081111561093a57610939611595565b5b600281111561094c5761094b611595565b5b8152602001908152602001600020600061096691906113cd565b60046000815480929190610979906118d4565b919050555060016000806101000a81548160ff021916908360028111156109a3576109a2611595565b5b0217905550565b60006004548311156109f1576040517f08c379a00000000000000000000000000000000000000000000000000000000081526004016109e890611968565b60405180910390fd5b6004548303610a6e57600280811115610a0d57610a0c611595565b5b60008054906101000a900460ff166002811115610a2d57610a2c611595565b5b14610a6d576040517f08c379a0000000000000000000000000000000000000000000000000000000008152600401610a64906119d4565b60405180910390fd5b5b60026000848152602001908152602001600020826002811115610a9457610a93611595565b5b60038110610aa557610aa46119f4565b5b0160009054906101000a900473ffffffffffffffffffffffffffffffffffffffff16905092915050565b600360009054906101000a900473ffffffffffffffffffffffffffffffffffffffff1673ffffffffffffffffffffffffffffffffffffffff163373ffffffffffffffffffffffffffffffffffffffff1614610b5f576040517f08c379a0000000000000000000000000000000000000000000000000000000008152600401610b5690611684565b60405180910390fd5b60006002811115610b7357610b72611595565b5b60008054906101000a900460ff166002811115610b9357610b92611595565b5b14610bd3576040517f08c379a0000000000000000000000000000000000000000000000000000000008152600401610bca906116f0565b60405180910390fd5b60016000806101000a81548160ff02191690836002811115610bf857610bf7611595565b5b0217905550565b60008054906101000a900460ff1681565b600360009054906101000a900473ffffffffffffffffffffffffffffffffffffffff1673ffffffffffffffffffffffffffffffffffffffff163373ffffffffffffffffffffffffffffffffffffffff1614610ca0576040517f08c379a0000000000000000000000000000000000000000000000000000000008152600401610c9790611684565b60405180910390fd5b60016002811115610cb457610cb3611595565b5b60008054906101000a900460ff166002811115610cd457610cd3611595565b5b14610d14576040517f08c379a0000000000000000000000000000000000000000000000000000000008152600401610d0b906116f0565b60405180910390fd5b600060016000806002811115610d2d57610d2c611595565b5b6002811115610d3f57610d3e611595565b5b8152602001908152602001600020805490501115610ec557600060016000806002811115610d7057610d6f611595565b5b6002811115610d8257610d81611595565b5b815260200190815260200160002080549050610dd26040518060400160405280600381526020017f6361720000000000000000000000000000000000000000000000000000000000815250611394565b610ddc9190611a52565b9050600060016000806002811115610df757610df6611595565b5b6002811115610e0957610e08611595565b5b81526020019081526020016000208281548110610e2957610e286119f4565b5b9060005260206000200160009054906101000a900473ffffffffffffffffffffffffffffffffffffffff16905080600260006004548152602001908152602001600020600060038110610e7f57610e7e6119f4565b5b0160006101000a81548173ffffffffffffffffffffffffffffffffffffffff021916908373ffffffffffffffffffffffffffffffffffffffff1602179055505050610f2f565b6000600260006004548152602001908152602001600020600060038110610eef57610eee6119f4565b5b0160006101000a81548173ffffffffffffffffffffffffffffffffffffffff021916908373ffffffffffffffffffffffffffffffffffffffff1602179055505b60006001600060016002811115610f4957610f48611595565b5b6002811115610f5b57610f5a611595565b5b81526020019081526020016000208054905011156110e35760006001600060016002811115610f8d57610f8c611595565b5b6002811115610f9f57610f9e611595565b5b815260200190815260200160002080549050610fef6040518060400160405280600581526020017f70686f6e65000000000000000000000000000000000000000000000000000000815250611394565b610ff99190611a52565b90506000600160006001600281111561101557611014611595565b5b600281111561102757611026611595565b5b81526020019081526020016000208281548110611047576110466119f4565b5b9060005260206000200160009054906101000a900473ffffffffffffffffffffffffffffffffffffffff1690508060026000600454815260200190815260200160002060016003811061109d5761109c6119f4565b5b0160006101000a81548173ffffffffffffffffffffffffffffffffffffffff021916908373ffffffffffffffffffffffffffffffffffffffff160217905550505061114d565b600060026000600454815260200190815260200160002060016003811061110d5761110c6119f4565b5b0160006101000a81548173ffffffffffffffffffffffffffffffffffffffff021916908373ffffffffffffffffffffffffffffffffffffffff1602179055505b60006001600060028081111561116657611165611595565b5b600281111561117857611177611595565b5b81526020019081526020016000208054905011156112fe576000600160006002808111156111a9576111a8611595565b5b60028111156111bb576111ba611595565b5b81526020019081526020016000208054905061120b6040518060400160405280600881526020017f636f6d7075746572000000000000000000000000000000000000000000000000815250611394565b6112159190611a52565b90506000600160006002808111156112305761122f611595565b5b600281111561124257611241611595565b5b81526020019081526020016000208281548110611262576112616119f4565b5b9060005260206000200160009054906101000a900473ffffffffffffffffffffffffffffffffffffffff169050806002600060045481526020019081526020016000206002600381106112b8576112b76119f4565b5b0160006101000a81548173ffffffffffffffffffffffffffffffffffffffff021916908373ffffffffffffffffffffffffffffffffffffffff1602179055505050611368565b6000600260006004548152602001908152602001600020600260038110611328576113276119f4565b5b0160006101000a81548173ffffffffffffffffffffffffffffffffffffffff021916908373ffffffffffffffffffffffffffffffffffffffff1602179055505b60026000806101000a81548160ff0219169083600281111561138d5761138c611595565b5b0217905550565b6000334442846040516020016113ad9493929190611b5d565b6040516020818303038152906040528051906020012060001c9050919050565b50805460008255906000526020600020908101906113eb91906113ee565b50565b5b808211156114075760008160009055506001016113ef565b5090565b6000819050919050565b61141e8161140b565b82525050565b60006020820190506114396000830184611415565b92915050565b600080fd5b6003811061145157600080fd5b50565b60008135905061146381611444565b92915050565b60006020828403121561147f5761147e61143f565b5b600061148d84828501611454565b91505092915050565b600073ffffffffffffffffffffffffffffffffffffffff82169050919050565b60006114c182611496565b9050919050565b6114d1816114b6565b82525050565b60006020820190506114ec60008301846114c8565b92915050565b60006060820190506115076000830186611415565b6115146020830185611415565b6115216040830184611415565b949350505050565b6115328161140b565b811461153d57600080fd5b50565b60008135905061154f81611529565b92915050565b6000806040838503121561156c5761156b61143f565b5b600061157a85828601611540565b925050602061158b85828601611454565b9150509250929050565b7f4e487b7100000000000000000000000000000000000000000000000000000000600052602160045260246000fd5b600381106115d5576115d4611595565b5b50565b60008190506115e6826115c4565b919050565b60006115f6826115d8565b9050919050565b611606816115eb565b82525050565b600060208201905061162160008301846115fd565b92915050565b600082825260208201905092915050565b7f63616c6c6572206973206e6f74206f776e657200000000000000000000000000600082015250565b600061166e601383611627565b915061167982611638565b602082019050919050565b6000602082019050818103600083015261169d81611661565b9050919050565b7f6e6f7420616c6c6f77656420696e207468697320737461676500000000000000600082015250565b60006116da601983611627565b91506116e5826116a4565b602082019050919050565b60006020820190508181036000830152611709816116cd565b9050919050565b7f74686520707265736964656e742063616e2774206275792061206c6f7474657260008201527f79207469636b6574000000000000000000000000000000000000000000000000602082015250565b600061176c602883611627565b915061177782611710565b604082019050919050565b6000602082019050818103600083015261179b8161175f565b9050919050565b7f76616c756520646f6573206e6f74206d617463682077697468207469636b657460008201527f2070726963650000000000000000000000000000000000000000000000000000602082015250565b60006117fe602683611627565b9150611809826117a2565b604082019050919050565b6000602082019050818103600083015261182d816117f1565b9050919050565b6003811061184557611844611595565b5b50565b600081905061185682611834565b919050565b600061186682611848565b9050919050565b6118768161185b565b82525050565b6000604082019050611891600083018561186d565b61189e6020830184611415565b9392505050565b7f4e487b7100000000000000000000000000000000000000000000000000000000600052601160045260246000fd5b60006118df8261140b565b91507fffffffffffffffffffffffffffffffffffffffffffffffffffffffffffffffff8203611911576119106118a5565b5b600182019050919050565b7f696e76616c696420726f756e6400000000000000000000000000000000000000600082015250565b6000611952600d83611627565b915061195d8261191c565b602082019050919050565b6000602082019050818103600083015261198181611945565b9050919050565b7f6e6f2077696e6e65727320796574000000000000000000000000000000000000600082015250565b60006119be600e83611627565b91506119c982611988565b602082019050919050565b600060208201905081810360008301526119ed816119b1565b9050919050565b7f4e487b7100000000000000000000000000000000000000000000000000000000600052603260045260246000fd5b7f4e487b7100000000000000000000000000000000000000000000000000000000600052601260045260246000fd5b6000611a5d8261140b565b9150611a688361140b565b925082611a7857611a77611a23565b5b828206905092915050565b60008160601b9050919050565b6000611a9b82611a83565b9050919050565b6000611aad82611a90565b9050919050565b611ac5611ac0826114b6565b611aa2565b82525050565b6000819050919050565b611ae6611ae18261140b565b611acb565b82525050565b600081519050919050565b600081905092915050565b60005b83811015611b20578082015181840152602081019050611b05565b60008484015250505050565b6000611b3782611aec565b611b418185611af7565b9350611b51818560208601611b02565b80840191505092915050565b6000611b698287611ab4565b601482019150611b798286611ad5565b602082019150611b898285611ad5565b602082019150611b998284611b2c565b91508190509594505050505056fea2646970667358221220f89b0638111fd5926e7cb1fe8a8418aed8ac64618946b7a42c4c39b55e297fc564736f6c63430008130033",
  "linkReferences": {},
  "deployedLinkReferences": {}
}